:100000000C9462000C9471030C944A030C948A00C3
:100010000C948A000C948A000C948A000C948A0038
:100020000C948A000C948A000C948A000C948A0028
:100030000C948A000C948A000C948A000C948A0018
:100040000C9400030C948A000C948A000C948A008F
:100050000C948A000C948A000C948A000C948A00F8
:100060000C948A000C948A000000000024002700F1
:100070002A0000000000250028002B0000000000DE
:1000800023002600290004040404040404040202DA
:100090000202020203030303030301020408102007
:1000A0004080010204081020010204081020000012
:1000B0000008000201000003040700000000000027
:1000C0000000860411241FBECFEFD8E0DEBFCDBFF5
:1000D00011E0A0E0B1E0ECE9F9E002C005900D927A
:1000E000A433B107D9F721E0A4E3B1E001C01D9228
:1000F000AB35B207E1F710E0C2E6D0E004C02197CB
:10010000FE010E94C604C136D107C9F70E949803B8
:100110000C94CC040C940000AF92BF92CF92DF926B
:10012000EF92FF920F931F93CF93DF936C017B01AC
:100130008B01040F151FEB015E01AE18BF08C0173D
:10014000D10759F06991D601ED91FC910190F081B0
:10015000E02DC6010995892B79F7C501DF91CF9173
:100160001F910F91FF90EF90DF90CF90BF90AF90D5
:100170000895833081F028F4813099F08230A9F01D
:1001800008958730A9F08830C9F08430B1F48091A7
:1001900080008F7D03C0809180008F7780938000E6
:1001A000089584B58F7784BD089584B58F7DFBCF86
:1001B0008091B0008F778093B00008958091B00057
:1001C0008F7DF9CF1F93CF93DF93282F30E0F90174
:1001D000E255FF4F8491F901E656FF4FD491F901A2
:1001E000EA57FF4FC491CC23A9F0162F81110E942A
:1001F000B900EC2FF0E0EE0FFF1FEE58FF4FA59176
:10020000B4918FB7F894EC91111108C0D095DE230A
:10021000DC938FBFDF91CF911F910895DE2BF8CF34
:10022000CF93DF9390E0FC01E656FF4F24918A576D
:100230009F4FFC0184918823D1F090E0880F991F93
:10024000FC01E859FF4FA591B491FC01EE58FF4F16
:10025000C591D49161110EC09FB7F8948C91E22F93
:10026000E0958E238C932881E223E8839FBFDF9162
:10027000CF9108958FB7F894EC91E22BEC938FBF58
:10028000F6CF0895089590E080E0089581E090E031
:10029000909342018093410180913D0190913E01F4
:1002A000019690933E0180933D0120913F01309152
:1002B00040012F5F3F4F3093400120933F010A9749
:1002C00040F061E08DE00E94E20010923E01109249
:1002D0003D0108958F929F92AF92BF920F931F930B
:1002E000CF93DF93CDB7DEB7A1970FB6F894DEBFFB
:1002F0000FBECDBF19A2423008F44AE08E010F5D57
:100300001F4F842E912CB12CA12CA50194010E9489
:10031000A404E62FB901CA01EA3044F5E05DD80132
:10032000EE938D01232B242B252B79F790E080E091
:10033000109769F0FD0101900020E9F73197AF01B6
:100340004A1B5B0BBD0183E491E00E948C00A196E7
:100350000FB6F894DEBF0FBECDBFDF91CF911F91D6
:100360000F91BF90AF909F908F900895E95CD7CF89
:10037000CF93DF93EC0160E08E810E94E20061E0A8
:100380008E810E94E20060E08E810E94E2008BE894
:1003900091E00197F1F7DF91CF910895CF92DF922D
:1003A000EF92FF920F931F93CF93DF936C017C0129
:1003B00087E0E80EF11CD0E0C0E0062F10E0B801A5
:1003C0000C2E02C0759567950A94E2F76170F701EB
:1003D00081917F010E94E2002196C430D10579F716
:1003E000C601DF91CF911F910F91FF90EF90DF90A9
:1003F000CF900C94B801CF92DF92EF92FF920F93BF
:100400001F93CF93DF93EC01F62E642F8C810E9413
:10041000E2008D818F3F19F060E00E94E2000F2D15
:1004200010E08F8584FF25C06E0187E0C80ED11CC7
:10043000F12CE12CB8010E2C02C0759567950A9439
:10044000E2F76170F60181916F010E94E200FFEF17
:10045000EF1AFF0A88E0E816F10461F7CE01DF9198
:10046000CF911F910F91FF90EF90DF90CF900C9460
:10047000B801B80184E0759567958A95E1F7CE01DA
:100480000E94CE016F2DCE01DF91CF911F910F9170
:10049000FF90EF90DF90CF900C94CE0140E0682F5A
:1004A00083E491E00C94FB01CF93DF93823029F435
:1004B000909152019860909352018093560110924E
:1004C000570180E48093580180E18093590180E5D1
:1004D00080935A0161E0809147010E941001809150
:1004E00048018F3F19F061E00E94100161E08091A6
:1004F00049010E941001C3E4D1E09E012354314020
:100500008091520184FD0BC084E090E02196281771
:10051000390744F461E08E810E941001EECF88E03B
:1005200090E0F4CF8BE39DE00197F1F760E08091DC
:1005300047010E94E20060E0809149010E94E200D0
:10054000809148018F3F19F060E00E94E2008091A5
:10055000520184FD39C063E083E491E00E94CE0142
:10056000CBE4D6E4CE010197F1F763E083E491E0B8
:100570000E94CE012197F1F763E083E491E00E94AD
:10058000CE0183E592E00197F1F762E083E491E028
:100590000E94CE018091520180620E944E0284E04E
:1005A000809353018CE00E944E0281E00E944E0233
:1005B0008BE39FE10197F1F782E08093540186E09D
:1005C000DF91CF910C944E0280620E944E028BE428
:1005D00096E40197F1F78091520180620E944E02E9
:1005E00083E592E00197F1F78091520180620E94C9
:1005F0004E02D0CF41E00E94FB0181E090E00895DF
:100600001F920F920FB60F9211242F933F938F9347
:100610009F93AF93BF938091390190913A01A0913C
:100620003B01B0913C013091380123E0230F2D377D
:1006300058F50196A11DB11D209338018093390111
:1006400090933A01A0933B01B0933C018091340117
:1006500090913501A0913601B09137010196A11D0D
:10066000B11D8093340190933501A0933601B0936E
:100670003701BF91AF919F918F913F912F910F9033
:100680000FBE0F901F90189526E8230F0296A11D0C
:10069000B11DD2CF1F920F920FB60F9211242F933C
:1006A0003F934F935F936F937F938F939F93AF93FA
:1006B000BF93EF93FF93E0910201F091030109953D
:1006C000FF91EF91BF91AF919F918F917F916F912A
:1006D0005F914F913F912F910F900FBE0F901F9000
:1006E00018951F920F920FB60F9211242F933F93DC
:1006F0004F935F936F937F938F939F93AF93BF932A
:10070000EF93FF93E0910001F09101010995FF91B2
:10071000EF91BF91AF919F918F917F916F915F9179
:100720004F913F912F910F900FBE0F901F901895F2
:10073000789484B5826084BD84B5816084BD85B5BC
:10074000826085BD85B5816085BD80916E008160C8
:1007500080936E001092810080918100826080936E
:100760008100809181008160809381008091800070
:100770008160809380008091B10084608093B1009B
:100780008091B00081608093B00080917A00846095
:1007900080937A0080917A00826080937A008091C1
:1007A0007A00816080937A0080917A0080688093DB
:1007B0007A001092C10082E00E94540242E150E0AF
:1007C00060E171E083E491E00E948C0086E491E0B6
:1007D0009093010180930001809169008C7F826079
:1007E00080936900E89A60E083E00E94100161E074
:1007F00083E00E94E20061E08DE00E94100160E071
:100800008DE00E94E20010923E0110923D01109294
:10081000400110923F019BE3A92E9FE1B92EC1EB4D
:10082000D0E00DE910E029E8E22E20E0F22E30E0E1
:10083000C32E30E0D32E8091410190914201019767
:1008400009F03EC081E00E944E02C5010197F1F718
:100850004FE050E063E271E083E491E00E948C009D
:10086000E0915601E23008F03EC0E150F0E0ED5B6F
:10087000FE4F848980680E944E0260913F01709112
:10088000400190E080E04AE00E946A01E091560158
:10089000E23058F5E150F0E0ED5BFE4F8489885F6F
:1008A00080680E944E0260913D0170913E0190E08F
:1008B00080E04AE00E946A011092420110924101D8
:1008C000FE018491F8019490F701849081100FC08B
:1008D00060E08DE00E94E200C114D10409F4ABCFC6
:1008E0000E940000A8CFE1E0C1CFE1E0D4CF8111A8
:1008F0000E94B900E82DF0E0EE0FFF1FE458FF4F13
:10090000A591B4918C91982219F3E6CFE3E4F1E03C
:100910001382128288E091E09183808389E084834E
:100920008FEF858388E0868387E0878386E08087F2
:1009300085E0818784E08287138614861586168673
:10094000178681E00C945402A1E21A2EAA1BBB1B4D
:10095000FD010DC0AA1FBB1FEE1FFF1FA217B3078B
:10096000E407F50720F0A21BB30BE40BF50B661FA1
:10097000771F881F991F1A9469F760957095809565
:1009800090959B01AC01BD01CF010895EE0FFF1FB3
:0C0990000590F491E02D0994F894FFCF3D
:10099C004101410100000000FA028C0043014201B8
:1009AC005442616C6C732020202020437572726558
:1009BC006E74005442616C6C7320204375727265C6
:0409CC006E74000045
:00000001FF
